:020000040000FA
:060000000A128A110C280F
:10000800FE00030EF2000A08F3000A128A111528EE
:100018000A128A110F28F001F10183010A128A11CC
:100028006A280B1C182819284E2883120313061C4B
:100038001E281F283B28861C222823283B28061D0B
:10004800262827283B28861D2A282B283B28061ED9
:100058002E282F283B28861E322833283B28061FA7
:10006800362837283B28861B3A283B284D28053058
:10007800700671040319412842284B287008013E74
:10008800F00071080318013E003EF1004D28F00110
:10009800F1010B1073088A00720E8300FE0E7E0EAB
:1000A8000900831603178901880183160313880141
:1000B800831203138801FF3083160313950086000B
:1000C80081138B178B15FF30960008000A128A11CE
:1000D80055200A128A1170088312031388006F28AA
:0600E8000A128A110C2827
:04400E00F220FF3F5E
:00000001FF
