:020000040000FA
:060000000A128A11FC2F18
:100D6C0083160317890188018316031388018701F1
:100D7C0086018312031386018701880108000A1279
:100D8C008A11B6260A128A11F201F301003073029D
:100D9C000230031972020318D42ED52EE12E0A123A
:100DAC008A11E9260A128A110130F2070318F30A94
:100DBC000030F307CC2EFF30831203138700CC2EA8
:100DCC000A128A110028053083120313A000003088
:100DDC00A1000230A2000030A3000330A4000030B8
:100DEC00A5000230A6000030A7001B2F4130F100F7
:100DFC00EE30F000F00B002FF10B002F0000FF3055
:100E0C008312031387004130F100EE30F000F00B39
:100E1C000D2FF10B0D2F00008312031387010130EE
:100E2C00A0020030031CA103A10220082104031D11
:100E3C00202F212FFC2E562F87014130F100EE3050
:100E4C00F000F00B272FF10B272F00008312031358
:100E5C00AB014A2F0130F0002B0A362F0310F00D96
:100E6C00FF3E031D342F700887004130F100EE3037
:100E7C00F000F00B3F2FF10B3F2F00000130F00082
:100E8C00700883120313AB0708302B02031C4F2F7F
:100E9C00502F302F0130A2020030031CA303A302F9
:100EAC0022082304031D5B2F5C2F222F942FA901F2
:100EBC008030F0007008AE0087014130F100EE3058
:100ECC00F000F00B672FF10B672F0000862F2E0818
:100EDC0087004130F100EE30F000F00B732FF10B76
:100EEC00732F0000831203132E08F0000310700CF4
:100EFC002E04F1007108AE000130F0007008A90753
:100F0C000830831203132902031C8D2F8E2F6D2F93
:100F1C000130A4020030031CA503A50224082504FB
:100F2C00031D992F9A2F5D2FF52F87014130F1006A
:100F3C00EE30F000F00BA02FF10BA02F000083126D
:100F4C000313AA01AC018030F0007008A800E92F4F
:100F5C00AD01CD2F831203132808F0002D0AB82FF2
:100F6C000310F00CFF3E031DB62F70082A048700F7
:100F7C004130F100EE30F000F00BC22FF10BC22F1C
:100F8C0000000130F000700883120313AD0700302D
:100F9C00F1002C08083CF000031CF1037108803AA6
:100FAC00803C031DDB2F70082D02031CDE2FDF2F6E
:100FBC00B02F831203130708F0007008AA00013049
:100FCC00F0007008AC0708302C02031CEE2FEF2F3A
:100FDC00AE2F0130A6020030031CA703A70226087F
:100FEC002704031DFA2FFB2F9B2F080083010A12E5
:040FFC008A11C52E63
:04400E00F220FF3F5E
:00000001FF
