:020000040000FA
:060000000A128A11EE2F26
:100BB2007E088A007F0882000A128A11D9250A1249
:100BC2008A118000840A04087D0603190034FF0A92
:100BD2000319FE0ADD2DC034F934A434B03499343B
:100BE20092348234F83480349034C034F934A434EA
:100BF200B034993492348234F83480349034831689
:100C0200031789018801831603138801FF308312B9
:100C120003138800831603138701FF308312031323
:100C220087008316031306148614061581130730F2
:100C3200950008000A128A1100260A128A118312EC
:100C420003130618252E262E302E0430F000003015
:100C5200F1000A128A1186260A128A11202E86189B
:100C6200332E342E3E2E1A30F8000030F9000A12CC
:100C72008A115F270A128A11202E0619412E422E4E
:100C8200482E0A128A1107270A128A11202E202EB4
:100C92000A128A110028700871040319512E522E6B
:100CA200812EF501F50A602E01300310F00DF10DD1
:100CB200FF3E031D562E0130F4007408F507F11FA4
:100CC200632E642E552E71087302031D6A2E70085E
:100CD2007202031C6D2E6E2E742E7008F2027108C1
:100CE200031CF303F30201300310F10CF00CFF3E7E
:100CF200031D752E0130F502031D802E812E642EF8
:100D02007308F1007208F00008000830F20072085F
:100D1200F5000330F2007208F600B42E7508831253
:100D220003138700760888000330F4008A30F3004A
:100D32005530F200F20B9B2EF30B9B2EF40B9B2EE5
:100D4200A22EFF3083120313870088000330F400C1
:100D52008A30F3005530F200F20BAD2EF30BAD2EBC
:100D6200F40BAD2EB42E0130F0020030031CF1035F
:100D7200F102700A031DC12E710A031DC12EC22E7B
:100D82008F2E0800F501F601700871040319CA2EAE
:100D9200CB2E022FF701F70AD92E01300310F00DE6
:100DA200F10DFF3E031DCF2E0130F4007408F7074A
:100DB200F11FDC2EDD2ECE2E01300310F50DF60DC7
:100DC200FF3E031DDE2E71087302031DEA2E70081A
:100DD2007202031CED2EEE2EF52E7008F20271083F
:100DE200031CF303F302751401300310F10CF00C31
:100DF200FF3E031DF62E0130F702031D012F022FC5
:100E0200DD2E7608F1007508F00008003430840009
:100E12002A30F0000408F1000A30F2007008840061
:100E220083130008F300F00A71088400730880003D
:100E3200F10AF20B0F2F0A3083120313BE000030A7
:100E4200BF004D2F3E08343E840083130008870004
:100E52000A30C0000030C1003D2F4008343E8400FB
:100E62008313000888004130F100EE30F000F00BEF
:100E7200382FF10B382F0000013083120313C00208
:100E82000030031CC103C102400A031D4C2F410A5A
:100E9200031D4C2F4D2F2E2F0130BE020030031C9C
:100EA200BF03BF023E0A031D5A2F3F0A031D5A2FDA
:100EB2005B2F232FFF308700880008000A30F000E4
:100EC2000030F1007908F3007808F2000A128A1162
:100ED200C3260A128A11710883120313BF00700815
:100EE200BE000A30F0000030F1007908F300780803
:100EF200F2000A128A114C260A128A117108831210
:100F02000313C1007008C000343084002030FA009E
:100F12000408FB000A30FC007A08840083130008EE
:100F2200FD00FA0A7B0884007D088000FB0AFC0BA6
:100F32008D2FC201C301E42F4208343E8400831383
:100F420000088700C401C501D52F4408343E84003F
:100F52008313000888004130FB00EE30FA00FA0BE0
:100F6200B02FFB0BB02F0000831203133F08430680
:100F7200031DBD2F3E084206031DC02FC12FCF2FD8
:100F820041084506031DC72F40084406031DCA2F0A
:100F9200CB2FCF2FFF3087008800ED2F0130C40701
:100FA2000318C50A0030C507003045020A3003198C
:100FB2004402031CDD2FDE2FA62F0130C2070318C7
:100FC200C30A0030C307003043020A300319420249
:100FD200031CEC2FED2F9D2F080083133430FD00EE
:100FE2000530FE00EC30FF00203084000A128A1126
:0E0FF200DD250A128A1183010A128A111B2EB4
:04400E00F220FF3F5E
:00000001FF
