:020000040000FA
:060000000A128A110C280F
:10000800FE00030EF2000A08F3000A128A111528EE
:100018000A128A110F28F001F10183010A128A11CC
:1000280048288B1C182819282C285A307006710467
:1000380003191F28202829287008013EF00071089C
:100048000318013E003EF1002B28F001F1018B104E
:1000580073088A00720E8300FE0E7E0E0900831656
:100068000317890188018316031388018312031378
:1000780088010130831603139500860081138B17BE
:100088008B100B16011708000A128A1133200A1266
:100098008A1170088312031388004D280A128A11E6
:0200A8000C2822
:04400E00F220FF3F5E
:00000001FF
