:020000040000FA
:060000000A128A11FC2F18
:100F4E008316031789018801831603138801831200
:100F5E00031388018316031387018312031387017A
:100F6E008316031306148614061581130730950095
:100F7E0008000A128A11A7270A128A118312031374
:100F8E000618CA2FCB2FF82F0430F2000030F300D2
:100F9E00E92FFF308312031388004130F100EE3049
:100FAE00F000F00BD82FF10BD82F00008312031393
:100FBE0088014130F100EE30F000F00BE42FF10B20
:100FCE00E42F00000130F2020030031CF303F302A1
:100FDE00720A031DF62F730A031DF62FF72FD02F5B
:100FEE00C52FC52F0A128A11002883010A128A11F1
:020FFE00C02F02
:04400E00F220FF3F5E
:00000001FF
