:020000040000FA
:060000000A128A11FC2F18
:100DE600831603178901880183160313880183126A
:100DF60003138801831603138701831203138701E4
:100E060083160313061486140615811307309500FE
:100E160008002C2FFF308312031388000230F400E1
:100E26008630F3009930F200F20B172FF30B172FD1
:100E3600F40B172F8312031388010230F400863057
:100E4600F3009930F200F20B262FF30B262FF40B4A
:100E5600262F0130F0020030031CF103F102700A64
:100E6600031D392F710A031D392F3A2F0D2F080044
:100E76000A128A11F3260A128A118312031306181C
:100E8600452F462F502F0430F0000030F1000A1293
:100E96008A110C270A128A11402F8618532F542FB5
:100EA6005E2F0230F0000030F1000A128A1170271E
:100EB6000A128A11402F0619612F622F6C2F0230F9
:100EC600F0000030F1000A128A11B1270A128A11C5
:100ED600402F402F0A128A110028A22F0830F50051
:100EE6000030F6008030F2007208F700912F770884
:100EF6008312031388000230F4008630F300993021
:100F0600F200F20B842FF30B842FF40B842F770857
:100F1600F2000310720CF3007308F7000130F502BB
:100F26000030031CF603F602750A031D9E2F760A8F
:100F3600031D9E2F9F2F7A2F8312031388010130E2
:100F4600F0020030031CF103F102700A031DAF2FFB
:100F5600710A031DAF2FB02F712F0800ED2F083037
:100F6600F5000030F600F701D02F7708F2000310E5
:100F7600720C8038F3007308F700770883120313A6
:100F860088000230F4008630F3009930F200F20B4C
:100F9600CA2FF30BCA2FF40BCA2F0130F50200300B
:100FA600031CF603F602750A031DDD2F760A031DE0
:100FB600DD2FDE2FB82F8312031388010230F400D1
:100FC6008630F3009930F200F20BE72FF30BE72F90
:100FD600F40BE72F0130F0020030031CF103F1029D
:100FE600700A031DFA2F710A031DFA2FFB2FB22F69
:0A0FF600080083010A128A113B2F44
:04400E00F220FF3F5E
:00000001FF
