:020000040000FA
:060000000A128A11EE2F26
:100D0200C034F934A434B034993492348234F8348F
:100D1200803490347E088A007F0882000A128A1189
:100D22008B260A128A118000840A04087D060319A0
:100D32000034FF0A0319FE0A8F2E83160317890156
:100D42008801831603138801FF308312031388007E
:100D5200831603138701FF30831203138700831660
:100D62000313061486140615811307309500080034
:100D7200D92EFF308312031388000230F40086302C
:100D8200F3009930F200F20BC42EF30BC42EF40BD5
:100D9200C42E8312031388010230F4008630F3005C
:100DA2009930F200F20BD32EF30BD32EF40BD32E89
:100DB2000130F0020030031CF103F102700A031D3E
:100DC200E62E710A031DE62EE72EBA2E08000D2F1D
:100DD2000C30831203138700413088000230F40084
:100DE2008630F3009930F200F20BF52EF30BF52E5C
:100DF200F40BF52EFF30831203138800FF308700B7
:100E02000230F4008630F3009930F200F20B072F23
:100E1200F30B072FF40B072F0130F0020030031CF5
:100E2200F103F102700A031D1A2F710A031D1A2F12
:100E32001B2FE92E08000A128A119E260A128A1115
:100E4200831203130618262F272F312F0430F000A8
:100E52000030F1000A128A11B9260A128A11212FD2
:100E62008618342F352F4E2F0D30F700FB30F60049
:100E7200F60B392FF70B392F3E2F83120313861CE3
:100E8200432F442F212F0230F0000030F1000A12CC
:100E92008A11E8260A128A11212F0619512F522F80
:100EA2006B2F0D30F700FB30F600F60B562FF70BC9
:100EB200562F5B2F83120313061D602F612F6B2F9A
:100EC2000230F0000030F1000A128A116F270A1274
:100ED2008A11212F212F0A128A110028831203134B
:100EE200AA01AB01AC01AD01203084002E30F2002A
:100EF2000408F3000A30F400720884008313000827
:100F0200F500F20A7308840075088000F30AF40BF6
:100F12007D2FDF2F2A08203E8400831300088700DC
:100F2200C12F2C08203E8400831300088800413022
:100F3200F300EE30F200F20B9C2FF30B9C2F00001B
:100F42000330831203132A062B04031DA92FAA2F91
:100F5200BB2F2C082D04031DAF2FB02FBB2F700801
:100F62007104031DB52FB62FBB2FFF308800FF3051
:100F72008700ED2F0130AC070318AD0A0030AD0732
:100F820000302D020A3003192C02031CC92FCA2F6C
:100F9200922F0130AA070318AB0A0030AB07AC014D
:100FA200AD0100302B020A3003192A02031CDA2F8A
:100FB200DB2F8B2FAC01AD01AA01AB010130F00296
:100FC2000030031CF103F102700A031DEC2F710AB9
:100FD200031DEC2FED2FD22F080083133830FD00B4
:100FE2000630FE008130FF002E3084000A128A1182
:0E0FF2008F260A128A1183010A128A111C2FFF
:04400E00F220FF3F5E
:00000001FF
