:020000040000FA
:060000000A128A11EE2F26
:100ED400C034F934A434B034993492348234F834BC
:100EE4008034903483160317890188018316031311
:100EF40088018701831203138701880108007E0893
:100F04008A007F0882000A128A1181270A128A1134
:100F14008000840A04087D0603190034FF0A0319BB
:100F2400FE0A852F0A128A1174270A128A112030A8
:100F340084002E30F0000408F1000A30F20070083A
:100F4400840083130008F300F00A71088400730816
:100F54008000F10AF20BA12F83120313AA01AB0143
:100F6400E22F2A08203E8400831300088800AC0185
:100F7400AD01D32F2C08203E840083130008870082
:100F84004130F100EE30F000F00BC62FF10BC62F0C
:100F94000000013083120313AC070318AD0A0030BC
:100FA400AD0700302D020A3003192C02031CDB2F7D
:100FB400DC2FBC2F0130AA070318AB0A0030AB07A3
:100FC40000302B020A3003192A02031CEA2FEB2FEC
:100FD400B32F0A128A11002883133830FD0007301A
:100FE400FE006A30FF002E3084000A128A11852721
:0C0FF4000A128A1183010A128A11942F3C
:04400E00F220FF3F5E
:00000001FF
