:020000040000FA
:060000000A128A11EE2F26
:100D5C00C034F934A434B034993492348234F83435
:100D6C00803490348316031789018801831603138A
:100D7C0088018701831203138701FF308800080064
:100D8C007E088A007F0882000A128A11C6260A127F
:100D9C008A118000840A04087D0603190034FF0AB6
:100DAC000319FE0ACA2E700871040319DE2EDF2EF9
:100DBC000E2FF501F50AED2E01300310F00DF10D9B
:100DCC00FF3E031DE32E0130F4007408F507F11FFC
:100DDC00F02EF12EE22E71087302031DF72E70080F
:100DEC007202031CFA2EFB2E012F7008F2027108FE
:100DFC00031CF303F30201300310F10CF00CFF3E63
:100E0C00031D022F0130F502031D0D2F0E2FF12EA5
:100E1C007308F1007208F0000800F501F601700883
:100E2C00710403191A2F1B2F522FF701F70A292FC0
:100E3C0001300310F00DF10DFF3E031D1F2F01308B
:100E4C00F4007408F707F11F2C2F2D2F1E2F0130E3
:100E5C000310F50DF60DFF3E031D2E2F71087302C6
:100E6C00031D3A2F70087202031C3D2F3E2F452F95
:100E7C007008F2027108031CF303F30275140130BD
:100E8C000310F10CF00CFF3E031D462F0130F7024E
:100E9C00031D512F522F2D2F7608F1007508F000ED
:100EAC0008000A128A11B8260A128A11203084000E
:100EBC003030F8000408F9000A30FA007808840091
:100ECC0083130008FB00F80A790884007B08800073
:100EDC00F90AFA0B642F83120313AE01AF013C30F5
:100EEC002E062F04031D7B2F7C2F7E2FAE01AF010E
:100EFC0000302F020A3003192E02031C862F872F75
:100F0C00AE2F0A30F0000030F1002F08F3002E084D
:100F1C00F2000A128A1113270A128A11710883121D
:100F2C000313AB007008AA000A30F0000030F10087
:100F3C002F08F3002E08F2000A128A11D9260A1281
:100F4C008A11710883120313AD007008AC00B42F22
:100F5C002F08AB002E08AA00AC01AD0108308800A8
:100F6C002C08203E84008313000887000730F9000A
:100F7C007D30F800F80BC02FF90BC02F8312031330
:100F8C000808F8000310780C88002A08203E84001A
:100F9C008313000887000730F9007D30F800F80B48
:100FAC00D52FF90BD52F4130F900EE30F800F80BA6
:100FBC00DD2FF90BDD2F0000013083120313AE0778
:100FCC000318AF0A0030AF07752F0A128A110028D8
:100FDC0083133A30FD000630FE00AE30FF00303097
:100FEC0084000A128A11CA260A128A1183010A1273
:040FFC008A11572FD0
:04400E00F220FF3F5E
:00000001FF
