:020000040000FA
:060000000A128A11FC2F18
:100D48008316031789018801831603138801870115
:100D5800831203138701880108000A128A11A42646
:100D68000A128A11FC01FD0100307D0202300319CC
:100D78007C020318C02EC12ECD2E0A128A11D52648
:100D88000A128A110130FC070318FD0A0030FD071A
:100D9800B82EFF30831203138700B82E0A128A1167
:100DA80000280430F3000030F4000230F500003071
:100DB800F6000330F7000030F8000A2F0230F20086
:100DC8008630F1009930F000F00BE82EF10BE82E98
:100DD800F20BE82EFF30831203138700FF308800E0
:100DE8000230F2008630F1009930F000F00BFA2E54
:100DF800F10BFA2EF20BFA2E8312031387018801E6
:100E08000130F3020030031CF403F4027308740485
:100E1800031D0F2F102FE22E7C2F8312031388013E
:100E28000230F2008630F1009930F000F00B1A2FF2
:100E3800F10B1A2FF20B1A2FFA01422F7A0AF0003F
:100E48008030F1000030F2002C2F720DF20CF10C02
:100E5800F00B292F71088312031388000230F20067
:100E68008630F1009930F000F00B382FF10B382F55
:100E7800F20B382F0130F0007008FA0708307A02B8
:100E8800031C472F482F222F831203138801FA01CE
:100E98006D2F7A0AF0008030F1000030F200572FF1
:100EA800720DF20CF10CF00B542F7108831203131E
:100EB80087000230F2008630F1009930F000F00B24
:100EC800632FF10B632FF20B632F0130F0007008D2
:100ED800FA0708307A02031C722F732F4D2F8312E2
:100EE800031387010130F5020030031CF603F602F4
:100EF80075087604031D812F822F112FEF2FF9011A
:100F08008030F0007008FB00831203138801023060
:100F1800F2008630F1009930F000F00B912FF10BC0
:100F2800912FF20B912FB42F7B08831203138800A3
:100F38000230F2008630F1009930F000F00BA22F59
:100F4800F10BA22FF20BA22F7B08F0000310700CFC
:100F58007B04F1007108FB000130F0007008F9070C
:100F680008307902031CB92FBA2F982FF901803065
:100F7800F0007008FB00831203138701DF2F7B0842
:100F88008312031387000230F2008630F100993093
:100F9800F000F00BCD2FF10BCD2FF20BCD2F7B08EE
:100FA800F0000310700C7B04F1007108FB000130A5
:100FB800F0007008F90708307902031CE42FE52FC8
:100FC800C32F83120313870188010130F702003011
:100FD800031CF803F80277087804031DF42FF52F93
:100FE800832FFF30831203138700FF308800080027
:080FF80083010A128A11B12ED7
:04400E00F220FF3F5E
:00000001FF
