:020000040000FA
:060000000A128A11FC2F18
:100EF0000A128A1186270A128A110A128A11952764
:100F00000A128A117D2F0A128A11002883160317EC
:100F100089018801831603138801870186018312E2
:100F2000031386018701880108002030831603130C
:100F3000860008308312031386004130F100EE3042
:100F4000F000F00BA12FF10BA12F00002030831631
:100F50000313860010308312031386004130F10022
:100F6000EE30F000F00BB22FF10BB22F0000083082
:100F7000831603138600103083120313860041305A
:100F8000F100EE30F000F00BC32FF10BC32F000087
:100F90000830831603138600203083120313860063
:100FA0004130F100EE30F000F00BD42FF10BD42FD4
:100FB00000001030831603138600203083120313C1
:100FC00086004130F100EE30F000F00BE52FF10B20
:100FD000E52F0000103083160313860008308312BB
:100FE000031386004130F100EE30F000F00BF62FD5
:100FF000F10BF62F0000080083010A128A11782FE6
:04400E00F220FF3F5E
:00000001FF
