:020000040000FA
:060000000A128A11FC2F18
:100D740083160317890188018316031388018701E9
:100D840086018312031386018701880108000A1271
:100D94008A11BA260A128A11FC01FD0100307D0273
:100DA400023003197C020318D82ED92EE52E0A121C
:100DB4008A11ED260A128A110130FC070318FD0A74
:100DC4000030FD07D02EFF30831203138700D02E8E
:100DD4000A128A1100280430F3000030F4000230B3
:100DE400F5000030F6000330F7000030F8001C2F47
:100DF4004130F100EE30F000F00BFE2EF10BFE2E30
:100E04000000FF30831203138700FF308800413055
:100E1400F100EE30F000F00B0D2FF10B0D2F000060
:100E240083120313870188010130F3020030031C8D
:100E3400F403F40273087404031D212F222FFA2EE5
:100E4400852F8312031388014130F100EE30F00046
:100E5400F00B2A2FF10B2A2F0000FA014E2F7A0AE9
:100E6400F0008030F1000030F2003B2F720DF20CE4
:100E7400F10CF00B382F71088312031388004130F2
:100E8400F100EE30F000F00B452FF10B452F000080
:100E94000130F0007008FA0708307A02031C532F5F
:100EA400542F312F831203138801FA01762F7A0A03
:100EB400F0008030F1000030F200632F720DF20C6C
:100EC400F10CF00B602F710883120313870041307B
:100ED400F100EE30F000F00B6D2FF10B6D2F0000E0
:100EE4000130F0007008FA0708307A02031C7B2FE7
:100EF4007C2F592F8312031387010130F502003030
:100F0400031CF603F60275087604031D8A2F8B2F43
:100F1400232FEF2FF9018030F0007008FB008312BB
:100F2400031388014130F100EE30F000F00B982FEC
:100F3400F10B982F0000B72F7B088312031388004E
:100F44004130F100EE30F000F00BA62FF10BA62F8C
:100F540000007B08F0000310700C7B04F1007108A2
:100F6400FB000130F0007008F90708307902031C17
:100F7400BC2FBD2F9E2FF9018030F0007008FB00BC
:100F8400831203138701DF2F7B0883120313870067
:100F94004130F100EE30F000F00BCE2FF10BCE2FEC
:100FA40000007B08F0000310700C7B04F100710852
:100FB400FB000130F0007008F90708307902031CC7
:100FC400E42FE52FC62F8312031387018801013014
:100FD400F7020030031CF803F80277087804031DB5
:100FE400F42FF52F8C2FFF30831203138700FF306B
:0C0FF4008800080083010A128A11C92E2F
:04400E00F220FF3F5E
:00000001FF
