:020000040000FA
:060000000A128A11FC2F18
:100F3C000A128A11AC270A128A110A128A11BB27CB
:100F4C000A128A11A32F0A128A110028831603177A
:100F5C008901880183160313880187018601831296
:100F6C0003138601870188010800F201F301803028
:100F7C00F4000030F5004130F100EE30F000F00BE1
:100F8C00C52FF10BC52F0000EB2F74088312031330
:100F9C0088004130F100EE30F000F00BD32FF10B54
:100FAC00D32F00007508F1007408F000710DF10CDE
:100FBC00F00C74087004F40075087104F50001302D
:100FCC00F2070318F30A0030F3077308803AFF00A6
:100FDC0080307F02031DF42F08307202031CF72FA0
:100FEC00F82FCB2F831203138801080083010A12F8
:040FFC008A119E2F89
:04400E00F220FF3F5E
:00000001FF
