:020000040000FA
:060000000A128A110C280F
:10000800FE00030EF2000A08F3000A128A111528EE
:100018000A128A110F28F401F50183010A128A11C4
:1000280061280B1C18281928442883120313061862
:100038001E281F282F284130F100EE30F000F00B69
:100048002328F10B2328000083120313061C2D28F4
:100058002E282828071186183228332843284130AB
:10006800F100EE30F000F00B3728F10B37280000D4
:1000780083120313861C412842283C2807150B10BD
:1000880073088A00720E8300FE0E7E0E0900831626
:1000980003178901880183160313071183120313B9
:1000A800071103308316031386000330950081136C
:1000B8008B178B150330960008000A128A114B2003
:0C00C8000A128A1166280A128A110C28FC
:04400E00F220FF3F5E
:00000001FF
