:020000040000FA
:060000000A128A11FC2F18
:100F2C00831603178901880183160313880187012F
:100F3C0086018312031386018701880108000A12B7
:100F4C008A1196270A128A110130F0000030F10044
:100F5C000A128A11B7270A128A11AA2F0A128A11A9
:100F6C000028ED2F0830F4000030F500F601D32FE7
:100F7C007608F2000310720C8038F3007308F60048
:100F8C0076088312031388004130F300EE30F20030
:100F9C00F20BCE2FF30BCE2F00000130F4020030F9
:100FAC00031CF503F502740A031DE02F750A031DDB
:100FBC00E02FE12FBE2F8312031388014130F30081
:100FCC00EE30F200F20BE82FF30BE82F00000130AB
:100FDC00F0020030031CF103F102700A031DFA2F1A
:100FEC00710A031DFA2FFB2FB82F080083010A1278
:040FFC008A11A52F82
:04400E00F220FF3F5E
:00000001FF
