:020000040000FA
:060000000A128A110C280F
:10000800FE00030EF2000A08F3000A128A112128E2
:100018000A128A110F280A128A1163200A128A11F9
:10002800F6000A128A1164200A128A11F700F401F4
:10003800F50183010A128A115A28760877040319F0
:10004800262827283A28FF308312031389007608C8
:100058007704031930283228013033280030F000A3
:10006800F1017008F6007108F7003E2883120313A7
:1000780089012B288B1073088A00720E8300FE0EEC
:100088007E0E09008316031789018801831603135E
:100098008901831203138901013083160313950024
:1000A800860081138B170B16011708000A128A1194
:1000B80046200A128A115F280A128A110C28013474
:0200C800003402
:04400E00F220FF3F5E
:00000001FF
